{
  "contractName": "ERC721PresetMinterPauserAutoId",
  "abi": [
    {
      "inputs": [
        {
          "internalType": "string",
          "name": "name",
          "type": "string"
        },
        {
          "internalType": "string",
          "name": "symbol",
          "type": "string"
        },
        {
          "internalType": "string",
          "name": "baseTokenURI",
          "type": "string"
        }
      ],
      "stateMutability": "nonpayable",
      "type": "constructor"
    },
    {
      "anonymous": false,
      "inputs": [
        {
          "indexed": true,
          "internalType": "address",
          "name": "owner",
          "type": "address"
        },
        {
          "indexed": true,
          "internalType": "address",
          "name": "approved",
          "type": "address"
        },
        {
          "indexed": true,
          "internalType": "uint256",
          "name": "tokenId",
          "type": "uint256"
        }
      ],
      "name": "Approval",
      "type": "event"
    },
    {
      "anonymous": false,
      "inputs": [
        {
          "indexed": true,
          "internalType": "address",
          "name": "owner",
          "type": "address"
        },
        {
          "indexed": true,
          "internalType": "address",
          "name": "operator",
          "type": "address"
        },
        {
          "indexed": false,
          "internalType": "bool",
          "name": "approved",
          "type": "bool"
        }
      ],
      "name": "ApprovalForAll",
      "type": "event"
    },
    {
      "anonymous": false,
      "inputs": [
        {
          "indexed": false,
          "internalType": "address",
          "name": "account",
          "type": "address"
        }
      ],
      "name": "Paused",
      "type": "event"
    },
    {
      "anonymous": false,
      "inputs": [
        {
          "indexed": true,
          "internalType": "bytes32",
          "name": "role",
          "type": "bytes32"
        },
        {
          "indexed": true,
          "internalType": "bytes32",
          "name": "previousAdminRole",
          "type": "bytes32"
        },
        {
          "indexed": true,
          "internalType": "bytes32",
          "name": "newAdminRole",
          "type": "bytes32"
        }
      ],
      "name": "RoleAdminChanged",
      "type": "event"
    },
    {
      "anonymous": false,
      "inputs": [
        {
          "indexed": true,
          "internalType": "bytes32",
          "name": "role",
          "type": "bytes32"
        },
        {
          "indexed": true,
          "internalType": "address",
          "name": "account",
          "type": "address"
        },
        {
          "indexed": true,
          "internalType": "address",
          "name": "sender",
          "type": "address"
        }
      ],
      "name": "RoleGranted",
      "type": "event"
    },
    {
      "anonymous": false,
      "inputs": [
        {
          "indexed": true,
          "internalType": "bytes32",
          "name": "role",
          "type": "bytes32"
        },
        {
          "indexed": true,
          "internalType": "address",
          "name": "account",
          "type": "address"
        },
        {
          "indexed": true,
          "internalType": "address",
          "name": "sender",
          "type": "address"
        }
      ],
      "name": "RoleRevoked",
      "type": "event"
    },
    {
      "anonymous": false,
      "inputs": [
        {
          "indexed": true,
          "internalType": "address",
          "name": "from",
          "type": "address"
        },
        {
          "indexed": true,
          "internalType": "address",
          "name": "to",
          "type": "address"
        },
        {
          "indexed": true,
          "internalType": "uint256",
          "name": "tokenId",
          "type": "uint256"
        }
      ],
      "name": "Transfer",
      "type": "event"
    },
    {
      "anonymous": false,
      "inputs": [
        {
          "indexed": false,
          "internalType": "address",
          "name": "account",
          "type": "address"
        }
      ],
      "name": "Unpaused",
      "type": "event"
    },
    {
      "inputs": [],
      "name": "DEFAULT_ADMIN_ROLE",
      "outputs": [
        {
          "internalType": "bytes32",
          "name": "",
          "type": "bytes32"
        }
      ],
      "stateMutability": "view",
      "type": "function",
      "constant": true
    },
    {
      "inputs": [],
      "name": "MINTER_ROLE",
      "outputs": [
        {
          "internalType": "bytes32",
          "name": "",
          "type": "bytes32"
        }
      ],
      "stateMutability": "view",
      "type": "function",
      "constant": true
    },
    {
      "inputs": [],
      "name": "PAUSER_ROLE",
      "outputs": [
        {
          "internalType": "bytes32",
          "name": "",
          "type": "bytes32"
        }
      ],
      "stateMutability": "view",
      "type": "function",
      "constant": true
    },
    {
      "inputs": [
        {
          "internalType": "address",
          "name": "to",
          "type": "address"
        },
        {
          "internalType": "uint256",
          "name": "tokenId",
          "type": "uint256"
        }
      ],
      "name": "approve",
      "outputs": [],
      "stateMutability": "nonpayable",
      "type": "function"
    },
    {
      "inputs": [
        {
          "internalType": "address",
          "name": "owner",
          "type": "address"
        }
      ],
      "name": "balanceOf",
      "outputs": [
        {
          "internalType": "uint256",
          "name": "",
          "type": "uint256"
        }
      ],
      "stateMutability": "view",
      "type": "function",
      "constant": true
    },
    {
      "inputs": [
        {
          "internalType": "uint256",
          "name": "tokenId",
          "type": "uint256"
        }
      ],
      "name": "burn",
      "outputs": [],
      "stateMutability": "nonpayable",
      "type": "function"
    },
    {
      "inputs": [
        {
          "internalType": "uint256",
          "name": "tokenId",
          "type": "uint256"
        }
      ],
      "name": "getApproved",
      "outputs": [
        {
          "internalType": "address",
          "name": "",
          "type": "address"
        }
      ],
      "stateMutability": "view",
      "type": "function",
      "constant": true
    },
    {
      "inputs": [
        {
          "internalType": "bytes32",
          "name": "role",
          "type": "bytes32"
        }
      ],
      "name": "getRoleAdmin",
      "outputs": [
        {
          "internalType": "bytes32",
          "name": "",
          "type": "bytes32"
        }
      ],
      "stateMutability": "view",
      "type": "function",
      "constant": true
    },
    {
      "inputs": [
        {
          "internalType": "bytes32",
          "name": "role",
          "type": "bytes32"
        },
        {
          "internalType": "uint256",
          "name": "index",
          "type": "uint256"
        }
      ],
      "name": "getRoleMember",
      "outputs": [
        {
          "internalType": "address",
          "name": "",
          "type": "address"
        }
      ],
      "stateMutability": "view",
      "type": "function",
      "constant": true
    },
    {
      "inputs": [
        {
          "internalType": "bytes32",
          "name": "role",
          "type": "bytes32"
        }
      ],
      "name": "getRoleMemberCount",
      "outputs": [
        {
          "internalType": "uint256",
          "name": "",
          "type": "uint256"
        }
      ],
      "stateMutability": "view",
      "type": "function",
      "constant": true
    },
    {
      "inputs": [
        {
          "internalType": "bytes32",
          "name": "role",
          "type": "bytes32"
        },
        {
          "internalType": "address",
          "name": "account",
          "type": "address"
        }
      ],
      "name": "grantRole",
      "outputs": [],
      "stateMutability": "nonpayable",
      "type": "function"
    },
    {
      "inputs": [
        {
          "internalType": "bytes32",
          "name": "role",
          "type": "bytes32"
        },
        {
          "internalType": "address",
          "name": "account",
          "type": "address"
        }
      ],
      "name": "hasRole",
      "outputs": [
        {
          "internalType": "bool",
          "name": "",
          "type": "bool"
        }
      ],
      "stateMutability": "view",
      "type": "function",
      "constant": true
    },
    {
      "inputs": [
        {
          "internalType": "address",
          "name": "owner",
          "type": "address"
        },
        {
          "internalType": "address",
          "name": "operator",
          "type": "address"
        }
      ],
      "name": "isApprovedForAll",
      "outputs": [
        {
          "internalType": "bool",
          "name": "",
          "type": "bool"
        }
      ],
      "stateMutability": "view",
      "type": "function",
      "constant": true
    },
    {
      "inputs": [],
      "name": "name",
      "outputs": [
        {
          "internalType": "string",
          "name": "",
          "type": "string"
        }
      ],
      "stateMutability": "view",
      "type": "function",
      "constant": true
    },
    {
      "inputs": [
        {
          "internalType": "uint256",
          "name": "tokenId",
          "type": "uint256"
        }
      ],
      "name": "ownerOf",
      "outputs": [
        {
          "internalType": "address",
          "name": "",
          "type": "address"
        }
      ],
      "stateMutability": "view",
      "type": "function",
      "constant": true
    },
    {
      "inputs": [],
      "name": "paused",
      "outputs": [
        {
          "internalType": "bool",
          "name": "",
          "type": "bool"
        }
      ],
      "stateMutability": "view",
      "type": "function",
      "constant": true
    },
    {
      "inputs": [
        {
          "internalType": "bytes32",
          "name": "role",
          "type": "bytes32"
        },
        {
          "internalType": "address",
          "name": "account",
          "type": "address"
        }
      ],
      "name": "renounceRole",
      "outputs": [],
      "stateMutability": "nonpayable",
      "type": "function"
    },
    {
      "inputs": [
        {
          "internalType": "bytes32",
          "name": "role",
          "type": "bytes32"
        },
        {
          "internalType": "address",
          "name": "account",
          "type": "address"
        }
      ],
      "name": "revokeRole",
      "outputs": [],
      "stateMutability": "nonpayable",
      "type": "function"
    },
    {
      "inputs": [
        {
          "internalType": "address",
          "name": "from",
          "type": "address"
        },
        {
          "internalType": "address",
          "name": "to",
          "type": "address"
        },
        {
          "internalType": "uint256",
          "name": "tokenId",
          "type": "uint256"
        }
      ],
      "name": "safeTransferFrom",
      "outputs": [],
      "stateMutability": "nonpayable",
      "type": "function"
    },
    {
      "inputs": [
        {
          "internalType": "address",
          "name": "from",
          "type": "address"
        },
        {
          "internalType": "address",
          "name": "to",
          "type": "address"
        },
        {
          "internalType": "uint256",
          "name": "tokenId",
          "type": "uint256"
        },
        {
          "internalType": "bytes",
          "name": "_data",
          "type": "bytes"
        }
      ],
      "name": "safeTransferFrom",
      "outputs": [],
      "stateMutability": "nonpayable",
      "type": "function"
    },
    {
      "inputs": [
        {
          "internalType": "address",
          "name": "operator",
          "type": "address"
        },
        {
          "internalType": "bool",
          "name": "approved",
          "type": "bool"
        }
      ],
      "name": "setApprovalForAll",
      "outputs": [],
      "stateMutability": "nonpayable",
      "type": "function"
    },
    {
      "inputs": [],
      "name": "symbol",
      "outputs": [
        {
          "internalType": "string",
          "name": "",
          "type": "string"
        }
      ],
      "stateMutability": "view",
      "type": "function",
      "constant": true
    },
    {
      "inputs": [
        {
          "internalType": "uint256",
          "name": "index",
          "type": "uint256"
        }
      ],
      "name": "tokenByIndex",
      "outputs": [
        {
          "internalType": "uint256",
          "name": "",
          "type": "uint256"
        }
      ],
      "stateMutability": "view",
      "type": "function",
      "constant": true
    },
    {
      "inputs": [
        {
          "internalType": "address",
          "name": "owner",
          "type": "address"
        },
        {
          "internalType": "uint256",
          "name": "index",
          "type": "uint256"
        }
      ],
      "name": "tokenOfOwnerByIndex",
      "outputs": [
        {
          "internalType": "uint256",
          "name": "",
          "type": "uint256"
        }
      ],
      "stateMutability": "view",
      "type": "function",
      "constant": true
    },
    {
      "inputs": [
        {
          "internalType": "uint256",
          "name": "tokenId",
          "type": "uint256"
        }
      ],
      "name": "tokenURI",
      "outputs": [
        {
          "internalType": "string",
          "name": "",
          "type": "string"
        }
      ],
      "stateMutability": "view",
      "type": "function",
      "constant": true
    },
    {
      "inputs": [],
      "name": "totalSupply",
      "outputs": [
        {
          "internalType": "uint256",
          "name": "",
          "type": "uint256"
        }
      ],
      "stateMutability": "view",
      "type": "function",
      "constant": true
    },
    {
      "inputs": [
        {
          "internalType": "address",
          "name": "from",
          "type": "address"
        },
        {
          "internalType": "address",
          "name": "to",
          "type": "address"
        },
        {
          "internalType": "uint256",
          "name": "tokenId",
          "type": "uint256"
        }
      ],
      "name": "transferFrom",
      "outputs": [],
      "stateMutability": "nonpayable",
      "type": "function"
    },
    {
      "inputs": [
        {
          "internalType": "address",
          "name": "to",
          "type": "address"
        }
      ],
      "name": "mint1",
      "outputs": [],
      "stateMutability": "nonpayable",
      "type": "function"
    },
    {
      "inputs": [],
      "name": "pause",
      "outputs": [],
      "stateMutability": "nonpayable",
      "type": "function"
    },
    {
      "inputs": [],
      "name": "unpause",
      "outputs": [],
      "stateMutability": "nonpayable",
      "type": "function"
    },
    {
      "inputs": [
        {
          "internalType": "bytes4",
          "name": "interfaceId",
          "type": "bytes4"
        }
      ],
      "name": "supportsInterface",
      "outputs": [
        {
          "internalType": "bool",
          "name": "",
          "type": "bool"
        }
      ],
      "stateMutability": "view",
      "type": "function",
      "constant": true
    }
  ],
  "bytecode": "0x60806040526001600f553480156200001657600080fd5b5060405162002a8a38038062002a8a833981810160405260608110156200003c57600080fd5b81019080805160405193929190846401000000008211156200005d57600080fd5b9083019060208201858111156200007357600080fd5b82516401000000008111828201881017156200008e57600080fd5b82525081516020918201929091019080838360005b83811015620000bd578181015183820152602001620000a3565b50505050905090810190601f168015620000eb5780820380516001836020036101000a031916815260200191505b50604052602001805160405193929190846401000000008211156200010f57600080fd5b9083019060208201858111156200012557600080fd5b82516401000000008111828201881017156200014057600080fd5b82525081516020918201929091019080838360005b838110156200016f57818101518382015260200162000155565b50505050905090810190601f1680156200019d5780820380516001836020036101000a031916815260200191505b5060405260200180516040519392919084640100000000821115620001c157600080fd5b908301906020820185811115620001d757600080fd5b8251640100000000811182820188101715620001f257600080fd5b82525081516020918201929091019080838360005b838110156200022157818101518382015260200162000207565b50505050905090810190601f1680156200024f5780820380516001836020036101000a031916815260200191505b506040525050835184915083906200026f906002906020850190620004b6565b50805162000285906003906020840190620004b6565b5050600c805460ff19169055508051620002a790600e906020840190620004b6565b50620002be6000620002b862000325565b62000329565b620002ed7f9f2df0fed2c77648de5860a4cc508cd0818c85b8b8a1ab4ceeef8d981c8956a6620002b862000325565b6200031c7f65d7a28e3265b37a6474929f336521b332c1681b933f6cb9f3376673440d862a620002b862000325565b50505062000552565b3390565b6200034082826200036c60201b620011111760201c565b6000828152600160209081526040909120620003679183906200111f6200037c821b17901c565b505050565b6200037882826200039c565b5050565b600062000393836001600160a01b03841662000426565b90505b92915050565b620003a8828262000475565b62000378576000828152602081815260408083206001600160a01b03851684529091529020805460ff19166001179055620003e262000325565b6001600160a01b0316816001600160a01b0316837f2f8788117e7eff1d82e926ec794901d17c78024a50270940304540a733656f0d60405160405180910390a45050565b60006200043483836200049e565b6200046c5750815460018181018455600084815260208082209093018490558454848252828601909352604090209190915562000396565b50600062000396565b6000918252602082815260408084206001600160a01b0393909316845291905290205460ff1690565b60009081526001919091016020526040902054151590565b828054600181600116156101000203166002900490600052602060002090601f016020900481019282601f10620004f957805160ff191683800117855562000529565b8280016001018555821562000529579182015b82811115620005295782518255916020019190600101906200050c565b50620005379291506200053b565b5090565b5b808211156200053757600081556001016200053c565b61252880620005626000396000f3fe608060405234801561001057600080fd5b50600436106101e55760003560e01c80635c975abb1161010f578063a22cb465116100a2578063d539139311610071578063d539139314610678578063d547741f14610680578063e63ab1e9146106ac578063e985e9c5146106b4576101e5565b8063a22cb4651461054a578063b88d4fde14610578578063c87b56dd1461063e578063ca15c8731461065b576101e5565b80639010d07c116100de5780639010d07c146104eb57806391d148541461050e57806395d89b411461053a578063a217fddf14610542576101e5565b80635c975abb146104985780636352211e146104a057806370a08231146104bd5780638456cb59146104e3576101e5565b8063292ba619116101875780633f4ba83a116101565780633f4ba83a1461042057806342842e0e1461042857806342966c681461045e5780634f6ccce71461047b576101e5565b8063292ba619146103765780632f2ff15d1461039c5780632f745c59146103c857806336568abe146103f4576101e5565b8063095ea7b3116101c3578063095ea7b3146102db57806318160ddd1461030957806323b872dd14610323578063248a9ca314610359576101e5565b806301ffc9a7146101ea57806306fdde0314610225578063081812fc146102a2575b600080fd5b6102116004803603602081101561020057600080fd5b50356001600160e01b0319166106e2565b604080519115158252519081900360200190f35b61022d6106f5565b6040805160208082528351818301528351919283929083019185019080838360005b8381101561026757818101518382015260200161024f565b50505050905090810190601f1680156102945780820380516001836020036101000a031916815260200191505b509250505060405180910390f35b6102bf600480360360208110156102b857600080fd5b5035610788565b604080516001600160a01b039092168252519081900360200190f35b610307600480360360408110156102f157600080fd5b506001600160a01b0381351690602001356107ea565b005b6103116108c5565b60408051918252519081900360200190f35b6103076004803603606081101561033957600080fd5b506001600160a01b038135811691602081013590911690604001356108cb565b6103116004803603602081101561036f57600080fd5b5035610922565b6103076004803603602081101561038c57600080fd5b50356001600160a01b0316610937565b610307600480360360408110156103b257600080fd5b50803590602001356001600160a01b0316610a0e565b610311600480360360408110156103de57600080fd5b506001600160a01b038135169060200135610a30565b6103076004803603604081101561040a57600080fd5b50803590602001356001600160a01b0316610aa4565b610307610ac6565b6103076004803603606081101561043e57600080fd5b506001600160a01b03813581169160208101359091169060400135610b37565b6103076004803603602081101561047457600080fd5b5035610b52565b6103116004803603602081101561049157600080fd5b5035610ba4565b610211610c0a565b6102bf600480360360208110156104b657600080fd5b5035610c13565b610311600480360360208110156104d357600080fd5b50356001600160a01b0316610c67565b610307610cca565b6102bf6004803603604081101561050157600080fd5b5080359060200135610d39565b6102116004803603604081101561052457600080fd5b50803590602001356001600160a01b0316610d58565b61022d610d81565b610311610de2565b6103076004803603604081101561056057600080fd5b506001600160a01b0381351690602001351515610de7565b6103076004803603608081101561058e57600080fd5b6001600160a01b038235811692602081013590911691604082013591908101906080810160608201356401000000008111156105c957600080fd5b8201836020820111156105db57600080fd5b803590602001918460018302840111640100000000831117156105fd57600080fd5b91908080601f016020809104026020016040519081016040528093929190818152602001838380828437600092019190915250929550610eec945050505050565b61022d6004803603602081101561065457600080fd5b5035610f4a565b6103116004803603602081101561067157600080fd5b503561107a565b610311611091565b6103076004803603604081101561069657600080fd5b50803590602001356001600160a01b03166110b5565b6103116110bf565b610211600480360360408110156106ca57600080fd5b506001600160a01b03813581169160200135166110e3565b60006106ed82611134565b90505b919050565b60028054604080516020601f600019610100600187161502019094168590049384018190048102820181019092528281526060939092909183018282801561077e5780601f106107535761010080835404028352916020019161077e565b820191906000526020600020905b81548152906001019060200180831161076157829003601f168201915b5050505050905090565b600061079382611159565b6107ce5760405162461bcd60e51b815260040180806020018281038252602c815260200180612315602c913960400191505060405180910390fd5b506000908152600660205260409020546001600160a01b031690565b60006107f582610c13565b9050806001600160a01b0316836001600160a01b031614156108485760405162461bcd60e51b81526004018080602001828103825260218152602001806123996021913960400191505060405180910390fd5b806001600160a01b031661085a611176565b6001600160a01b0316148061087b575061087b81610876611176565b6110e3565b6108b65760405162461bcd60e51b815260040180806020018281038252603881526020018061228a6038913960400191505060405180910390fd5b6108c0838361117a565b505050565b600a5490565b6108dc6108d6611176565b826111e8565b6109175760405162461bcd60e51b81526004018080602001828103825260318152602001806123ba6031913960400191505060405180910390fd5b6108c083838361128c565b60009081526020819052604090206001015490565b6000600f54116109785760405162461bcd60e51b815260040180806020018281038252602c8152602001806121a0602c913960400191505060405180910390fd5b6109a97f9f2df0fed2c77648de5860a4cc508cd0818c85b8b8a1ab4ceeef8d981c8956a66109a4611176565b610d58565b6109e45760405162461bcd60e51b815260040180806020018281038252603d815260200180612417603d913960400191505060405180910390fd5b6109f7816109f2600d6113bc565b6113c0565b610a01600d6114ed565b50600f8054600019019055565b610a1882826114f6565b60008281526001602052604090206108c0908261111f565b6000610a3b83610c67565b8210610a785760405162461bcd60e51b815260040180806020018281038252602b815260200180612143602b913960400191505060405180910390fd5b506001600160a01b03821660009081526008602090815260408083208484529091529020545b92915050565b610aae8282611545565b60008281526001602052604090206108c090826115a6565b610af27f65d7a28e3265b37a6474929f336521b332c1681b933f6cb9f3376673440d862a6109a4611176565b610b2d5760405162461bcd60e51b81526004018080602001828103825260408152602001806124846040913960400191505060405180910390fd5b610b356115bb565b565b6108c083838360405180602001604052806000815250610eec565b610b5d6108d6611176565b610b985760405162461bcd60e51b81526004018080602001828103825260308152602001806124546030913960400191505060405180910390fd5b610ba18161165b565b50565b6000610bae6108c5565b8210610beb5760405162461bcd60e51b815260040180806020018281038252602c8152602001806123eb602c913960400191505060405180910390fd5b600a8281548110610bf857fe5b90600052602060002001549050919050565b600c5460ff1690565b6000818152600460205260408120546001600160a01b0316806106ed5760405162461bcd60e51b81526004018080602001828103825260298152602001806122ec6029913960400191505060405180910390fd5b60006001600160a01b038216610cae5760405162461bcd60e51b815260040180806020018281038252602a8152602001806122c2602a913960400191505060405180910390fd5b506001600160a01b031660009081526005602052604090205490565b610cf67f65d7a28e3265b37a6474929f336521b332c1681b933f6cb9f3376673440d862a6109a4611176565b610d315760405162461bcd60e51b815260040180806020018281038252603e8152602001806121cc603e913960400191505060405180910390fd5b610b356116e8565b6000828152600160205260408120610d51908361176b565b9392505050565b6000918252602082815260408084206001600160a01b0393909316845291905290205460ff1690565b60038054604080516020601f600260001961010060018816150201909516949094049384018190048102820181019092528281526060939092909183018282801561077e5780601f106107535761010080835404028352916020019161077e565b600081565b610def611176565b6001600160a01b0316826001600160a01b03161415610e55576040805162461bcd60e51b815260206004820152601960248201527f4552433732313a20617070726f766520746f2063616c6c657200000000000000604482015290519081900360640190fd5b8060076000610e62611176565b6001600160a01b03908116825260208083019390935260409182016000908120918716808252919093529120805460ff191692151592909217909155610ea6611176565b6001600160a01b03167f17307eab39ab6107e8899845ad3d59bd9653f200f220920489ca2b5937696c318360405180821515815260200191505060405180910390a35050565b610efd610ef7611176565b836111e8565b610f385760405162461bcd60e51b81526004018080602001828103825260318152602001806123ba6031913960400191505060405180910390fd5b610f4484848484611777565b50505050565b6060610f5582611159565b610f905760405162461bcd60e51b815260040180806020018281038252602f81526020018061236a602f913960400191505060405180910390fd5b6060610f9a6117c9565b90506000815111610fba5760405180602001604052806000815250610d51565b80610fc48461182a565b6040516020018083805190602001908083835b60208310610ff65780518252601f199092019160209182019101610fd7565b51815160209384036101000a600019018019909216911617905285519190930192850191508083835b6020831061103e5780518252601f19909201916020918201910161101f565b6001836020036101000a038019825116818451168082178552505050505050905001925050506040516020818303038152906040529392505050565b60008181526001602052604081206106ed906118f4565b7f9f2df0fed2c77648de5860a4cc508cd0818c85b8b8a1ab4ceeef8d981c8956a681565b610aae82826118ff565b7f65d7a28e3265b37a6474929f336521b332c1681b933f6cb9f3376673440d862a81565b6001600160a01b03918216600090815260076020908152604080832093909416825291909152205460ff1690565b61111b8282611946565b5050565b6000610d51836001600160a01b0384166119cb565b60006001600160e01b0319821663780e9d6360e01b14806106ed57506106ed82611a15565b6000908152600460205260409020546001600160a01b0316151590565b3390565b600081815260066020526040902080546001600160a01b0319166001600160a01b03841690811790915581906111af82610c13565b6001600160a01b03167f8c5be1e5ebec7d5bd14f71427d1e84f3dd0314c0f7b2291e5b200ac8c7c3b92560405160405180910390a45050565b60006111f382611159565b61122e5760405162461bcd60e51b815260040180806020018281038252602c81526020018061222e602c913960400191505060405180910390fd5b600061123983610c13565b9050806001600160a01b0316846001600160a01b031614806112745750836001600160a01b031661126984610788565b6001600160a01b0316145b80611284575061128481856110e3565b949350505050565b826001600160a01b031661129f82610c13565b6001600160a01b0316146112e45760405162461bcd60e51b81526004018080602001828103825260298152602001806123416029913960400191505060405180910390fd5b6001600160a01b0382166113295760405162461bcd60e51b815260040180806020018281038252602481526020018061220a6024913960400191505060405180910390fd5b611334838383611a55565b61133f60008261117a565b6001600160a01b038084166000818152600560209081526040808320805460001901905593861680835284832080546001019055858352600490915283822080546001600160a01b031916821790559251849392917fddf252ad1be2c89b69c2b068fc378daa952ba7f163c4a11628f55a4df523b3ef91a4505050565b5490565b6001600160a01b03821661141b576040805162461bcd60e51b815260206004820181905260248201527f4552433732313a206d696e7420746f20746865207a65726f2061646472657373604482015290519081900360640190fd5b61142481611159565b15611476576040805162461bcd60e51b815260206004820152601c60248201527f4552433732313a20746f6b656e20616c7265616479206d696e74656400000000604482015290519081900360640190fd5b61148260008383611a55565b6001600160a01b038216600081815260056020908152604080832080546001019055848352600490915280822080546001600160a01b0319168417905551839291907fddf252ad1be2c89b69c2b068fc378daa952ba7f163c4a11628f55a4df523b3ef908290a45050565b80546001019055565b61150a61150283610922565b6109a4611176565b6111115760405162461bcd60e51b815260040180806020018281038252602f815260200180612114602f913960400191505060405180910390fd5b61154d611176565b6001600160a01b0316816001600160a01b03161461159c5760405162461bcd60e51b815260040180806020018281038252602f8152602001806124c4602f913960400191505060405180910390fd5b61111b8282611a60565b6000610d51836001600160a01b038416611ae3565b6115c3610c0a565b61160b576040805162461bcd60e51b815260206004820152601460248201527314185d5cd8589b194e881b9bdd081c185d5cd95960621b604482015290519081900360640190fd5b600c805460ff191690557f5db9ee0a495bf2e6ff9c91a7834c1ba4fdd244a5e8aa4e537bd38aeae4b073aa61163e611176565b604080516001600160a01b039092168252519081900360200190a1565b600061166682610c13565b905061167481600084611a55565b61167f60008361117a565b6001600160a01b03811660008181526005602090815260408083208054600019019055858352600490915280822080546001600160a01b0319169055518492907fddf252ad1be2c89b69c2b068fc378daa952ba7f163c4a11628f55a4df523b3ef908390a45050565b6116f0610c0a565b15611735576040805162461bcd60e51b815260206004820152601060248201526f14185d5cd8589b194e881c185d5cd95960821b604482015290519081900360640190fd5b600c805460ff191660011790557f62e78cea01bee320cd4e420270b5ea74000d11b0c9f74754ebdbfc544b05a25861163e611176565b6000610d518383611ba9565b61178284848461128c565b61178e84848484611c0d565b610f445760405162461bcd60e51b815260040180806020018281038252603281526020018061216e6032913960400191505060405180910390fd5b600e8054604080516020601f600260001961010060018816150201909516949094049384018190048102820181019092528281526060939092909183018282801561077e5780601f106107535761010080835404028352916020019161077e565b60608161184f57506040805180820190915260018152600360fc1b60208201526106f0565b8160005b811561186757600101600a82049150611853565b60608167ffffffffffffffff8111801561188057600080fd5b506040519080825280601f01601f1916602001820160405280156118ab576020820181803683370190505b5090505b84156112845760001990910190600a850660300160f81b8183815181106118d257fe5b60200101906001600160f81b031916908160001a905350600a850494506118af565b60006106ed826113bc565b61190b61150283610922565b61159c5760405162461bcd60e51b815260040180806020018281038252603081526020018061225a6030913960400191505060405180910390fd5b6119508282610d58565b61111b576000828152602081815260408083206001600160a01b03851684529091529020805460ff19166001179055611987611176565b6001600160a01b0316816001600160a01b0316837f2f8788117e7eff1d82e926ec794901d17c78024a50270940304540a733656f0d60405160405180910390a45050565b60006119d78383611dc2565b611a0d57508154600181810184556000848152602080822090930184905584548482528286019093526040902091909155610a9e565b506000610a9e565b60006001600160e01b031982166380ac58cd60e01b1480611a4657506001600160e01b03198216635b5e139f60e01b145b806106ed57506106ed82611dda565b6108c0838383611dff565b611a6a8282610d58565b1561111b576000828152602081815260408083206001600160a01b03851684529091529020805460ff19169055611a9f611176565b6001600160a01b0316816001600160a01b0316837ff6391f5c32d9c69d2a47ea670b442974b53935d1edc7fd64eb21e047a839171b60405160405180910390a45050565b60008181526001830160205260408120548015611b9f5783546000198083019190810190600090879083908110611b1657fe5b9060005260206000200154905080876000018481548110611b3357fe5b600091825260208083209091019290925582815260018981019092526040902090840190558654879080611b6357fe5b60019003818190600052602060002001600090559055866001016000878152602001908152602001600020600090556001945050505050610a9e565b6000915050610a9e565b81546000908210611beb5760405162461bcd60e51b81526004018080602001828103825260228152602001806120c76022913960400191505060405180910390fd5b826000018281548110611bfa57fe5b9060005260206000200154905092915050565b6000611c21846001600160a01b0316611e4e565b15611db757836001600160a01b031663150b7a02611c3d611176565b8786866040518563ffffffff1660e01b815260040180856001600160a01b03168152602001846001600160a01b0316815260200183815260200180602001828103825283818151815260200191508051906020019080838360005b83811015611cb0578181015183820152602001611c98565b50505050905090810190601f168015611cdd5780820380516001836020036101000a031916815260200191505b5095505050505050602060405180830381600087803b158015611cff57600080fd5b505af1925050508015611d2457506040513d6020811015611d1f57600080fd5b505160015b611d9d573d808015611d52576040519150601f19603f3d011682016040523d82523d6000602084013e611d57565b606091505b508051611d955760405162461bcd60e51b815260040180806020018281038252603281526020018061216e6032913960400191505060405180910390fd5b805181602001fd5b6001600160e01b031916630a85bd0160e11b149050611284565b506001949350505050565b60009081526001919091016020526040902054151590565b60006001600160e01b03198216635a05180f60e01b14806106ed57506106ed82611e54565b611e0a838383611e79565b611e12610c0a565b156108c05760405162461bcd60e51b815260040180806020018281038252602b8152602001806120e9602b913960400191505060405180910390fd5b3b151590565b60006001600160e01b03198216637965db0b60e01b14806106ed57506106ed82611f02565b611e848383836108c0565b6001600160a01b038316611ea057611e9b81611f1b565b611ec3565b816001600160a01b0316836001600160a01b031614611ec357611ec38382611f5f565b6001600160a01b038216611edf57611eda81611ff4565b6108c0565b826001600160a01b0316826001600160a01b0316146108c0576108c08282612082565b6001600160e01b031981166301ffc9a760e01b14919050565b600a80546000838152600b60205260408120829055600182018355919091527fc65a7bb8d6351c1cf70c95a316cc6a92839c986682d98bc35f958f4883f9d2a80155565b60006001611f6c84610c67565b6000848152600960205260409020549190039150808214611fc1576001600160a01b03841660009081526008602090815260408083208584528252808320548484528184208190558352600990915290208190555b5060009182526009602090815260408084208490556001600160a01b039094168352600881528383209183525290812055565b600a80546000838152600b602052604081205460001983019390928490811061201957fe5b9060005260206000200154905080600a838154811061203457fe5b6000918252602080832090910192909255828152600b9091526040808220849055858252812055600a80548061206657fe5b6001900381819060005260206000200160009055905550505050565b600061208d83610c67565b6001600160a01b03909316600090815260086020908152604080832086845282528083208590559382526009905291909120919091555056fe456e756d657261626c655365743a20696e646578206f7574206f6620626f756e64734552433732315061757361626c653a20746f6b656e207472616e73666572207768696c6520706175736564416363657373436f6e74726f6c3a2073656e646572206d75737420626520616e2061646d696e20746f206772616e74455243373231456e756d657261626c653a206f776e657220696e646578206f7574206f6620626f756e64734552433732313a207472616e7366657220746f206e6f6e20455243373231526563656976657220696d706c656d656e7465724552433732313a2063616e2774206265206d696e7465642064756520746f2068617264636170206c696d69744552433732315072657365744d696e7465725061757365724175746f49643a206d75737420686176652070617573657220726f6c6520746f2070617573654552433732313a207472616e7366657220746f20746865207a65726f20616464726573734552433732313a206f70657261746f7220717565727920666f72206e6f6e6578697374656e7420746f6b656e416363657373436f6e74726f6c3a2073656e646572206d75737420626520616e2061646d696e20746f207265766f6b654552433732313a20617070726f76652063616c6c6572206973206e6f74206f776e6572206e6f7220617070726f76656420666f7220616c6c4552433732313a2062616c616e636520717565727920666f7220746865207a65726f20616464726573734552433732313a206f776e657220717565727920666f72206e6f6e6578697374656e7420746f6b656e4552433732313a20617070726f76656420717565727920666f72206e6f6e6578697374656e7420746f6b656e4552433732313a207472616e73666572206f6620746f6b656e2074686174206973206e6f74206f776e4552433732314d657461646174613a2055524920717565727920666f72206e6f6e6578697374656e7420746f6b656e4552433732313a20617070726f76616c20746f2063757272656e74206f776e65724552433732313a207472616e736665722063616c6c6572206973206e6f74206f776e6572206e6f7220617070726f766564455243373231456e756d657261626c653a20676c6f62616c20696e646578206f7574206f6620626f756e64734552433732315072657365744d696e7465725061757365724175746f49643a206d7573742068617665206d696e74657220726f6c6520746f206d696e744552433732314275726e61626c653a2063616c6c6572206973206e6f74206f776e6572206e6f7220617070726f7665644552433732315072657365744d696e7465725061757365724175746f49643a206d75737420686176652070617573657220726f6c6520746f20756e7061757365416363657373436f6e74726f6c3a2063616e206f6e6c792072656e6f756e636520726f6c657320666f722073656c66a26469706673582212206a80257f250c4c2aefafe8f0d782614f9bc8fbe26d58e324ef5c4470e752c0f964736f6c634300060c0033",
  "immutableReferences": {},
  "source": "// SPDX-License-Identifier: MIT\n\npragma solidity 0.6.12;\n\nimport \"./ERC721.sol\";\nimport \"./extensions/ERC721Enumerable.sol\";\nimport \"./extensions/ERC721Burnable.sol\";\nimport \"./extensions/ERC721Pausable.sol\";\nimport \"./access/AccessControlEnumerable.sol\";\nimport \"./utils/Context.sol\";\nimport \"./utils/Counters.sol\";\n\n/**\n * @dev {ERC721} token, including:\n *\n *  - ability for holders to burn (destroy) their tokens\n *  - a minter role that allows for token minting (creation)\n *  - a pauser role that allows to stop all token transfers\n *  - token ID and URI autogeneration\n *\n * This contract uses {AccessControl} to lock permissioned functions using the\n * different roles - head to its documentation for details.\n *\n * The account that deploys the contract will be granted the minter and pauser\n * roles, as well as the default admin role, which will let it grant both minter\n * and pauser roles to other accounts.\n */\ncontract ERC721PresetMinterPauserAutoId is\n    Context,\n    AccessControlEnumerable,\n    ERC721Enumerable,\n    ERC721Burnable,\n    ERC721Pausable\n{\n    using Counters for Counters.Counter;\n\n    bytes32 public constant MINTER_ROLE = keccak256(\"MINTER_ROLE\");\n    bytes32 public constant PAUSER_ROLE = keccak256(\"PAUSER_ROLE\");\n\n    Counters.Counter private _tokenIdTracker;\n\n    string private _baseTokenURI;\n\n    // Token limit\n    uint256 private _hardcap = 1;\n\n    /**\n     * @dev Grants `DEFAULT_ADMIN_ROLE`, `MINTER_ROLE` and `PAUSER_ROLE` to the\n     * account that deploys the contract.\n     *\n     * Token URIs will be autogenerated based on `baseURI` and their token IDs.\n     * See {ERC721-tokenURI}.\n     */\n    constructor(\n        string memory name,\n        string memory symbol,\n        string memory baseTokenURI\n    ) public ERC721(name, symbol) {\n        _baseTokenURI = baseTokenURI;\n\n        _setupRole(DEFAULT_ADMIN_ROLE, _msgSender());\n\n        _setupRole(MINTER_ROLE, _msgSender());\n        _setupRole(PAUSER_ROLE, _msgSender());\n    }\n\n    function _baseURI() internal view virtual override returns (string memory) {\n        return _baseTokenURI;\n    }\n\n    /**\n     * @dev Creates a new token for `to`. Its token ID will be automatically\n     * assigned (and available on the emitted {IERC721-Transfer} event), and the token\n     * URI autogenerated based on the base URI passed at construction.\n     *\n     * See {ERC721-_mint}.\n     *\n     * Requirements:\n     *\n     * - the caller must have the `MINTER_ROLE`.\n     */\n    function mint1(address to) public virtual {\n        require(_hardcap > 0, \"ERC721: can't be minted due to hardcap limit\");\n        require(\n            hasRole(MINTER_ROLE, _msgSender()),\n            \"ERC721PresetMinterPauserAutoId: must have minter role to mint\"\n        );\n\n        // We cannot just use balanceOf to create the new tokenId because tokens\n        // can be burned (destroyed), so we need a separate counter.\n        _mint(to, _tokenIdTracker.current());\n        _tokenIdTracker.increment();\n        _hardcap -= 1;\n    }\n\n    /**\n     * @dev Pauses all token transfers.\n     *\n     * See {ERC721Pausable} and {Pausable-_pause}.\n     *\n     * Requirements:\n     *\n     * - the caller must have the `PAUSER_ROLE`.\n     */\n    function pause() public virtual {\n        require(\n            hasRole(PAUSER_ROLE, _msgSender()),\n            \"ERC721PresetMinterPauserAutoId: must have pauser role to pause\"\n        );\n        _pause();\n    }\n\n    /**\n     * @dev Unpauses all token transfers.\n     *\n     * See {ERC721Pausable} and {Pausable-_unpause}.\n     *\n     * Requirements:\n     *\n     * - the caller must have the `PAUSER_ROLE`.\n     */\n    function unpause() public virtual {\n        require(\n            hasRole(PAUSER_ROLE, _msgSender()),\n            \"ERC721PresetMinterPauserAutoId: must have pauser role to unpause\"\n        );\n        _unpause();\n    }\n\n    function _beforeTokenTransfer(\n        address from,\n        address to,\n        uint256 tokenId\n    ) internal virtual override(ERC721, ERC721Enumerable, ERC721Pausable) {\n        super._beforeTokenTransfer(from, to, tokenId);\n    }\n\n    /**\n     * @dev See {IERC165-supportsInterface}.\n     */\n    function supportsInterface(bytes4 interfaceId)\n        public\n        view\n        virtual\n        override(AccessControlEnumerable, ERC721, ERC721Enumerable)\n        returns (bool)\n    {\n        return super.supportsInterface(interfaceId);\n    }\n}\n",
  "sourcePath": "/Users/taforyou/NFT721/contracts/ERC721PresetMinterPauserAutoId.sol",
  "compiler": {
    "name": "solc",
    "version": "0.6.12+commit.27d51765.Emscripten.clang"
  },
  "schemaVersion": "3.3.4",
  "updatedAt": "2021-04-20T14:13:34.576Z",
  "networkType": "ethereum",
  "devdoc": {
    "details": "{ERC721} token, including:  - ability for holders to burn (destroy) their tokens  - a minter role that allows for token minting (creation)  - a pauser role that allows to stop all token transfers  - token ID and URI autogeneration This contract uses {AccessControl} to lock permissioned functions using the different roles - head to its documentation for details. The account that deploys the contract will be granted the minter and pauser roles, as well as the default admin role, which will let it grant both minter and pauser roles to other accounts.",
    "kind": "dev",
    "methods": {
      "approve(address,uint256)": {
        "details": "See {IERC721-approve}."
      },
      "balanceOf(address)": {
        "details": "See {IERC721-balanceOf}."
      },
      "burn(uint256)": {
        "details": "Burns `tokenId`. See {ERC721-_burn}. Requirements: - The caller must own `tokenId` or be an approved operator."
      },
      "constructor": {
        "details": "Grants `DEFAULT_ADMIN_ROLE`, `MINTER_ROLE` and `PAUSER_ROLE` to the account that deploys the contract. Token URIs will be autogenerated based on `baseURI` and their token IDs. See {ERC721-tokenURI}."
      },
      "getApproved(uint256)": {
        "details": "See {IERC721-getApproved}."
      },
      "getRoleAdmin(bytes32)": {
        "details": "Returns the admin role that controls `role`. See {grantRole} and {revokeRole}. To change a role's admin, use {_setRoleAdmin}."
      },
      "getRoleMember(bytes32,uint256)": {
        "details": "Returns one of the accounts that have `role`. `index` must be a value between 0 and {getRoleMemberCount}, non-inclusive. Role bearers are not sorted in any particular way, and their ordering may change at any point. WARNING: When using {getRoleMember} and {getRoleMemberCount}, make sure you perform all queries on the same block. See the following https://forum.openzeppelin.com/t/iterating-over-elements-on-enumerableset-in-openzeppelin-contracts/2296[forum post] for more information."
      },
      "getRoleMemberCount(bytes32)": {
        "details": "Returns the number of accounts that have `role`. Can be used together with {getRoleMember} to enumerate all bearers of a role."
      },
      "grantRole(bytes32,address)": {
        "details": "Overload {grantRole} to track enumerable memberships"
      },
      "hasRole(bytes32,address)": {
        "details": "Returns `true` if `account` has been granted `role`."
      },
      "isApprovedForAll(address,address)": {
        "details": "See {IERC721-isApprovedForAll}."
      },
      "mint1(address)": {
        "details": "Creates a new token for `to`. Its token ID will be automatically assigned (and available on the emitted {IERC721-Transfer} event), and the token URI autogenerated based on the base URI passed at construction. See {ERC721-_mint}. Requirements: - the caller must have the `MINTER_ROLE`."
      },
      "name()": {
        "details": "See {IERC721Metadata-name}."
      },
      "ownerOf(uint256)": {
        "details": "See {IERC721-ownerOf}."
      },
      "pause()": {
        "details": "Pauses all token transfers. See {ERC721Pausable} and {Pausable-_pause}. Requirements: - the caller must have the `PAUSER_ROLE`."
      },
      "paused()": {
        "details": "Returns true if the contract is paused, and false otherwise."
      },
      "renounceRole(bytes32,address)": {
        "details": "Overload {renounceRole} to track enumerable memberships"
      },
      "revokeRole(bytes32,address)": {
        "details": "Overload {revokeRole} to track enumerable memberships"
      },
      "safeTransferFrom(address,address,uint256)": {
        "details": "See {IERC721-safeTransferFrom}."
      },
      "safeTransferFrom(address,address,uint256,bytes)": {
        "details": "See {IERC721-safeTransferFrom}."
      },
      "setApprovalForAll(address,bool)": {
        "details": "See {IERC721-setApprovalForAll}."
      },
      "supportsInterface(bytes4)": {
        "details": "See {IERC165-supportsInterface}."
      },
      "symbol()": {
        "details": "See {IERC721Metadata-symbol}."
      },
      "tokenByIndex(uint256)": {
        "details": "See {IERC721Enumerable-tokenByIndex}."
      },
      "tokenOfOwnerByIndex(address,uint256)": {
        "details": "See {IERC721Enumerable-tokenOfOwnerByIndex}."
      },
      "tokenURI(uint256)": {
        "details": "See {IERC721Metadata-tokenURI}."
      },
      "totalSupply()": {
        "details": "See {IERC721Enumerable-totalSupply}."
      },
      "transferFrom(address,address,uint256)": {
        "details": "See {IERC721-transferFrom}."
      },
      "unpause()": {
        "details": "Unpauses all token transfers. See {ERC721Pausable} and {Pausable-_unpause}. Requirements: - the caller must have the `PAUSER_ROLE`."
      }
    },
    "version": 1
  },
  "userdoc": {
    "kind": "user",
    "methods": {},
    "version": 1
  }
}